:020000040800F2
:10000000082A002045010008FD410008FF410008C2
:1000100003420008074200080B42000800000000ED
:100020000000000000000000000000001142000875
:100030000F420008000000001342000815420008AB
:100040001D4200081F420008214200082342000808
:100050002542000827420008294200082B420008D8
:100060002D4200082F4200083142000833420008A8
:100070003542000837420008394200083B42000878
:100080003D4200083F420008414200084342000848
:100090004542000847420008494200084B42000818
:1000A0004D4200084F4200085142000853420008E8
:1000B0005542000857420008594200085B420008B8
:1000C0005D4200085F420008614200086342000888
:1000D0006542000867420008C7420008274300083D
:1000E00087430008894300088B4300088D430008BC
:1000F0008F4300089143000893430008954300088C
:1001000097430008994300089B4300089D4300085B
:100110009F430008FF4300085F4400086144000853
:100120006344000865440008674400086944000807
:10013000DFF80CD005F02AF900480047593E0008C6
:10014000082A002000480047310100084FF0D8423B
:1001500010805180704700B597B000200190029048
:10016000022003900020049005900690079006203E
:100170000890002009900A9010200B9000200C900D
:100180000D900E900F904FF4805010900020119021
:1001900012901390149001A81590169008A801F0E1
:1001A000EAF80121062001F04AFA17B000BD08B5AF
:1001B0000121080202F081F801214FF4F07002F0F1
:1001C00089F84CF23370ADF8000003208DF802007E
:1001D00018208DF803006946FB4801F0F3FB4FF649
:1001E0008070ADF800006946F84801F0EBFB012093
:1001F000ADF800006946F64801F0E4FB4FF480508A
:10020000ADF800006946F34801F0DCFB08BD08B515
:1002100000200090FFF7CBFFFFF79DFF052003F0C4
:100220000FFC43F20801E320FFF790FF1221E720C3
:10023000FFF78CFF41F23121EF20FFF787FF4FF4EA
:1002400080710120FFF782FF4FF4E0610220FFF789
:100250007DFF41F230010320FFF778FF00210420E9
:10026000FFF774FF40F207210820FFF76FFF00211E
:100270000920FFF76BFF00210A20FFF767FF00212D
:100280000C20FFF763FF00210D20FFF75FFF002127
:100290000F20FFF75BFF00211020FFF757FF07211A
:1002A0001120FFF753FF00211220FFF74FFF00211D
:1002B0001320FFF74BFF142003F0C2FB41F29061C3
:1002C0001020FFF743FF40F227211120FFF73EFFE8
:1002D000052003F0B5FB1D211220FFF737FF052095
:1002E00003F0AEFB4FF400611320FFF72FFF142142
:1002F0002920FFF72BFF0B212B20FFF727FF0520DD
:1003000003F09EFB00212020FFF720FF0021212089
:10031000FFF71CFF07213020FFF718FF40F207719D
:100320003120FFF713FF06213220FFF70FFF40F2C5
:1003300004713520FFF70AFF41F604713620FFF7FC
:1003400005FF04213720FFF701FF00213820FFF7C8
:10035000FDFE40F206713920FFF7F8FE40F2017110
:100360003C20FFF7F3FE0F213D20FFF7EFFE0021B9
:100370005020FFF7EBFEEF215120FFF7E7FE0021B1
:100380005220FFF7E3FE40F23F115320FFF7DEFE5D
:100390004FF427416020FFF7D9FE01216120FFF7CC
:1003A000D5FE00216A20FFF7D1FE00218020FFF753
:1003B000CDFE00218120FFF7C9FE00218220FFF73A
:1003C000C5FE00218320FFF7C1FE00218420FFF736
:1003D000BDFE00218520FFF7B9FE10219020FFF718
:1003E000B5FE00219220FFF7B1FE03219320FFF715
:1003F000ADFE4FF488719520FFF7A8FE00219720ED
:10040000FFF7A4FE00219820FFF7A0FE41F218019B
:100410000320FFF79BFE40F273110720FFF796FEC3
:1004200008BD01B5BDF800006B49088008BD01B5E5
:10043000BDF800006949088008BD10B503460C46A8
:1004400019462020FFF782FE21462120FFF77EFE7D
:1004500010BD4FF0D8414880704722204FF0D8415E
:10046000088070472DE9F043064689461746002468
:100470000025A046B04649464046FFF7DEFF00BFD4
:100480001EE0FFF7EAFF00250FE037F81400012116
:10049000A940084204D151480088FFF7DAFF03E081
:1004A0004D480088FFF7D5FF6D1C102DEDD308F1E6
:1004B000010000F0FF0849464046FFF7BEFF641CFC
:1004C000182CDED3BDE8F08370B505460E46144601
:1004D000A4F12000C4B204EB4400414901EB001236
:1004E00031462846FFF7BEFF70BDF0B507460C4603
:1004F000002540F23F1609E0227831463846FFF7E2
:10050000E3FFA6F1100086B2641C6D1C207808B1D0
:10051000142DF1D3F0BD10B5044632A12046FFF7EB
:10052000E4FF10BD30B50446002500210846FFF762
:1005300084FFFFF792FF00BF03E04FF0D8404480F4
:100540006D1CB5F5963FF8D330BD2DE9F0418046DE
:100550000C461546002640F23F10102101FB150005
:1005600087B20CE02078082804D02278394640462B
:10057000FFF7AAFFA7F1100087B2641C761C207851
:1005800008B1132EEED3BDE8F081F0B504460D4658
:1005900016461F46B44206DBA01B401C81B2502009
:1005A000FFF7D4FD03E000215020FFF7CFFD2146E7
:1005B0005120FFF7CBFDBD4220DBE81B401C81B280
:1005C0005220FFF7C3FD1DE0001401400018014058
:1005D000001C0140002001408025002082250020D1
:1005E0002A54000820202020202020202020202005
:1005F0002020202020202020000000000021522068
:10060000FFF7A4FD29465320FFF7A0FD2946204609
:10061000FFF713FFF0BD00B54FF4A073F022591E91
:10062000EF20FFF7B2FF41F218010320FFF78EFD24
:1006300000BD2DE9F0410646884615461F460024B8
:1006400041463046FFF7F9FE5FB9FFF706FF00BFEE
:1006500004E0D8480088FFF7FCFE641CAC42F8D3E5
:1006600010E000240CE0FFF7F8FED2480088FFF706
:10067000F0FE701CC6B241463046FFF7DEFE641C39
:10068000AC42F0D3BDE8F081F0B505460E46174602
:100690001C460023224631462846FFF7CAFFE919C7
:1006A000C8B2002322463146FFF7C3FF01233A4672
:1006B00031462846FFF7BDFF301B401C81B20123A5
:1006C0003A462846FFF7B5FFF0BD2DE9F043064650
:1006D0000F4690460320A0EB4809002445466EE0F3
:1006E0007A1991B23219D0B2FFF7A7FEFFF7B5FE23
:1006F000B0480088FFF7ADFE7A1B91B23219D0B234
:10070000FFF79BFEFFF7A9FEAA480088FFF7A1FEAE
:100710007A1991B2321BD0B2FFF78FFEFFF79DFE20
:10072000A4480088FFF795FE7A1B91B2321BD0B225
:10073000FFF783FEFFF791FE9E480088FFF789FED2
:100740003A1991B27219D0B2FFF777FEFFF785FE22
:1007500098480088FFF77DFE3A1B91B27219D0B21B
:10076000FFF76BFEFFF779FE92480088FFF771FEF6
:100770003A1991B2721BD0B2FFF75FFEFFF76DFE20
:100780008C480088FFF765FE3A1B91B2721BD0B20D
:10079000FFF753FEFFF761FE86480088FFF759FE1A
:1007A000B9F1000F04DA062000EB8400814405E073
:1007B000601B0A2101EB800081446D1E641CAC4269
:1007C0008ED9BDE8F08370B506460024002540F2BE
:1007D0003F110020FFF731FEFFF73FFE00BF14E09E
:1007E00000250FE056F824000121A940084204D159
:1007F00071480088FFF72DFE03E06E480088FFF780
:1008000028FE6D1C202DEDD3641CB4F5166FE7D3C4
:1008100070BD30B50346002400255D88988845EA00
:1008200000455C89988944EA0044281B4508234414
:1008300041F208010320FFF789FCFFF70EFE0024B8
:1008400004E01888FFF705FE9B1C641CAC42F8D33B
:1008500041F218010320FFF779FC30BD7CB5044656
:100860000020019000900422A11C684600F019FAB3
:10087000042204F10A0101A800F013FADDE90001E5
:10088000401A400800900199601800F055FA0021C4
:100890004A4801F054FE4FF40061484801F0A0FEC0
:1008A0000121464801F04BFE41F208010320FFF709
:1008B0004DFCFFF7D2FD002001900CE04AF2A5505C
:1008C00000F054FA064602F060F90546FFF7C1FD54
:1008D0000198401C0190DDE900108842EED304210C
:1008E000374801F019F90021344801F028FE0021B1
:1008F000324801F075FE0121304801F020FE41F23E
:1009000018010320FFF722FC7CBD01464FF0D840C0
:1009100001804088704722204FF0D8410880084667
:100920004088704710B500211020FFF70FFC002110
:100930001120FFF70BFC00211220FFF707FC00211C
:100940001320FFF703FC142003F07AF841F2B07192
:100950001020FFF7FBFB40F237111120FFF7F6FBE9
:10096000052003F06DF840F239111220FFF7EEFB7D
:10097000052003F065F84FF4E8511320FFF7E6FB7C
:1009800013212920FFF7E2FB052003F059F840F27C
:1009900073110720FFF7DAFB10BD00B540F27311A9
:1009A0000720FFF7D3FB00BD00B500210720FFF7AC
:1009B000CDFB00BD802500208225002000300140B5
:1009C000000C014000B587B0012141F20C0001F09C
:1009D00081FCE020ADF8040003208DF8060018200B
:1009E0008DF8070001A9ED4800F0ECFF0420ADF8F8
:1009F000040003208DF8060010208DF8070001A9DF
:100A0000E74800F0DFFF0421E54801F085F8002009
:100A1000ADF808004FF48270ADF80A000020ADF880
:100A20000C000220ADF80E000120ADF810004002CD
:100A3000ADF812000820ADF814000020ADF8160043
:100A40000720ADF8180002A9D64801F0DBFC01210F
:100A5000D44801F074FD07B000BD10B5044600BFD6
:100A60000221D04801F0EFFD0028F9D02146CD4801
:100A700001F096FD00BF0121CA4801F0E4FD002805
:100A8000F9D0C84801F08EFDC0B210BD10B50024E9
:100A90000421C34801F042F80520FFF7DEFF00BF44
:100AA000A520FFF7DAFF044614F0010FF8D1042166
:100AB000BB4801F031F810BD10B50421B84801F071
:100AC0002DF80620FFF7C9FF0421B54801F024F8EE
:100AD00010BD10B50446FFF7EFFF0421B04801F048
:100AE0001DF8D820FFF7B9FFC4F30740FFF7B5FFA3
:100AF000C4F30720FFF7B1FFE0B2FFF7AEFF042118
:100B0000A74801F009F8FFF7C1FF10BD10B5FFF7C6
:100B1000D3FF0421A24801F001F8C720FFF79DFF91
:100B200004219F4800F0F8FFFFF7B0FF10BD70B53B
:100B300005460C461646FFF7BFFF0421984800F013
:100B4000EDFF0220FFF789FFC4F30740FFF785FFA1
:100B5000C4F30720FFF781FFE0B2FFF77EFF03E059
:100B60002878FFF77AFF6D1C3000A6F101018EB2E4
:100B7000F6D104218A4800F0CFFFFFF787FF70BD50
:100B80002DE9F05F07460E4614464FF00008C146B7
:100B9000C2460025AB4606F0FF0ACAF10000C5B206
:100BA0002046E11704EB1161C1F30728E11704EBBC
:100BB00011610912A4EB012101F0FF09BAF1000F44
:100BC00020D1B8F1000F05D1224631463846FFF753
:100BD000AEFF64E009E04FF4807231463846FFF71B
:100BE000A6FF06F5807607F580775FEA0800A8F192
:100BF000010101F0FF08EED14A4631463846FFF7C1
:100C000096FF4CE0B8F1000F18D1A94510DDA9EB13
:100C1000050000F0FF0B2A4631463846FFF787FFF4
:100C20002E442F445A4631463846FFF780FF36E0BF
:100C3000224631463846FFF77AFF30E0601B84B227
:100C40002046E11704EB1161C1F30728E11704EB1B
:100C500011610912A4EB012101F0FF092A46314676
:100C60003846FFF764FF2E442F4409E04FF48072AA
:100C700031463846FFF75BFF06F5807607F580774B
:100C80005FEA0800A8F1010101F0FF08EED1B9F117
:100C9000000F04D04A4631463846FFF748FFBDE80A
:100CA000F09F70B505460C46164604213C4800F0FE
:100CB00035FF0320FFF7D1FEC4F30740FFF7CDFE59
:100CC000C4F30720FFF7C9FEE0B2FFF7C6FE04E059
:100CD000A520FFF7C2FE28706D1C3000A6F10101AF
:100CE0008EB2F5D104212E4800F016FF70BD2DE91B
:100CF000F04100240025002600270421284800F0A8
:100D00000DFF9F20FFF7A9FEA520FFF7A6FE0546D1
:100D1000A520FFF7A2FE0646A520FFF79EFE074688
:100D200004211F4800F0F8FE280440EA062040EAAB
:100D300007042046BDE8F08110B504460421184898
:100D400000F0ECFE0320FFF788FEC4F30740FFF736
:100D500084FEC4F30720FFF780FEE0B2FFF77DFEBC
:100D600010BD10B5A520FFF778FE10BD10B50446E4
:100D700000BF02210B4801F066FC0028F9D0214693
:100D8000084801F00DFC00BF0121064801F05BFCA2
:100D90000028F9D0034801F005FC10BD000801400F
:100DA000000C014000300140FD49096801F03801A4
:100DB000FB4A116011460968014311607047F84908
:100DC000096821F00801F64A1160114609680143DB
:100DD00011607047F249096821F01001F04A116072
:100DE00011460968014311607047EE48EC494860BC
:100DF000ED4848607047EA48006940F08000E849E3
:100E0000086170470420E649C96811F0010F01D05C
:100E100001200EE0E249C96811F0040F01D0022060
:100E200007E0DF49C96811F0100F01D0032000E08E
:100E30000420704708B500200090FF20009002E0D9
:100E40000098401E009000980028F9D108BD70B5A8
:100E500004460425FFF7D6FF054605E0FFF7EAFF45
:100E6000FFF7D0FF0546641E012D01D1002CF5D1FE
:100E700004B90525284670BD70B50546042440F622
:100E8000FF70FFF7E4FF0446042C19D1C448006941
:100E900040F00200C249086108464561006940F01F
:100EA0004000086140F6FF70FFF7D1FF0446012CB7
:100EB00006D0BB48006941F6FD710840B849086199
:100EC000204670BD10B5042440F6FF70FFF7BFFF49
:100ED0000446042C18D1B248006940F00400B0491F
:100EE00008610846006940F04000086140F6FF7064
:100EF000FFF7ADFF0446012C06D0A948006941F672
:100F0000FB710840A6490861204610BD10B50424B5
:100F100040F6FF70FFF79BFF0446042C3BD1A1482D
:100F20009F498860A04888600846006940F020001A
:100F300008610846006940F04000086140F6FF7013
:100F4000FFF785FF0446042C1CD19548006941F643
:100F5000DF710840924908610846006940F01000BE
:100F60000861A520914908800F20FFF770FF044613
:100F7000012C10D08A48006941F6EF710840884979
:100F8000086108E0012C06D08548006941F6EF7140
:100F9000084083490861204610BD70B505460E46DD
:100FA00004240F20FFF753FF0446042C25D17C486E
:100FB000006940F001007A4908612E800F20FFF798
:100FC00046FF0446042C0FD1300C68800F20FFF739
:100FD0003EFF0446012C10D07148006941F6FE71B5
:100FE00008406F49086108E0012C06D06C48006990
:100FF00041F6FE7108406A490861204670BD70B52F
:1010000005460E4604240F20FFF721FF0446042C5A
:1010100013D16348006940F00100614908612E80E6
:101020000F20FFF714FF0446012C06D05C4800692E
:1010300041F6FE7108405A490861204670BD70B5FE
:1010400005460E4604240F20FFF701FF0446042C3A
:1010500017D154485249886053488860084600694F
:1010600040F0100008612E800F20FFF7F0FE0446CC
:10107000012C06D04A48006941F6EF710840484902
:101080000861204670BD2DE9F04704464FF6FF7613
:101090003746B046B1460425E443E6B2C4F3072719
:1010A000C4F307484FEA14690F20FFF7D0FE054646
:1010B000042D40D13B483A4988603B488860084647
:1010C000006940F010000861FF2E06D03748083054
:1010D00006800F20FFF7BBFE0546042D08D1FF2F29
:1010E00006D032480A3007800F20FFF7B0FE0546D1
:1010F000042D0AD1B8F1FF0F07D02C480C30A0F80E
:1011000000800F20FFF7A3FE0546042D0AD1B9F198
:10111000FF0F07D025480E30A0F800900F20FFF7F2
:1011200096FE0546012D06D01D48006941F6EF7177
:1011300008401B4908612846BDE8F08770B50546A0
:10114000042440F6FF70FFF782FE0446042C4AD1C7
:10115000144813498860144888600846006940F0C4
:10116000200008610846006940F04000086140F630
:10117000FF70FFF76CFE0446042C2BD10848006971
:1011800041F6DF710840064908610846006940F0F1
:101190001000086165B10020044908800BE00000E0
:1011A0000020024023016745AB89EFCD00F8FF1F07
:1011B000A5204549088040F6FF70FFF748FE044629
:1011C000012C10D04148006941F6EF7108403F49B9
:1011D000086108E0012C06D03C48006941F6DF7147
:1011E00008403A490861204670BD2DE9F0410746A4
:1011F0000D461646042436483449886035488860D0
:101200000F20FFF724FE0446042C1AD12F48006952
:1012100040F010002D49086147EA0500304340F0D6
:10122000F8002949891C08800F20FFF710FE0446AA
:10123000012C06D02548006941F6EF71084023498A
:1012400008612046BDE8F0812048C06980087047E9
:101250001E48006A704700201C49C96911F0020F3E
:1012600001D0012000E000207047002017490968E4
:1012700011F0200F01D0012000E00020704729B1BB
:10128000124A12690243114B1A6104E00F4A1269B3
:1012900082430E4B1A61704701460020012908D194
:1012A0000A4AD26912F0010F01D0012008E00020A3
:1012B00006E0064AD2680A4201D0012000E0002080
:1012C00070470249C860704700F8FF1F00200240C5
:1012D00023016745AB89EFCD30B943F2DB014FF015
:1012E000204242F8201005E043F2D2014FF02042A4
:1012F00042F820106FF07042411C4FF0204343F839
:10130000212011461A4602EB8002C2F804117047F0
:1013100010280AD118214FF0204211664021516651
:101320004FF0FC319166D16610E01821F94A116046
:101330004FF040014FF02042C2F884104FF0FC31D2
:10134000F54A11604FF02042C2F88C107047182007
:10135000F24908604FF000004FF02041C1F8A400AE
:101360004FF0FC30EE49086001F10401086001F122
:10137000040108607047D0E901121143C2681143AB
:10138000026911434269114382691143C2691143E1
:10139000026A1143426A1143826A1143026B11438C
:1013A0004FF02043026843F822108168082908D1D1
:1013B0001A46016852F8211041F04001026843F8D2
:1013C0002210416B0968426B526841EA0211426B7C
:1013D000926841EA0221426B928941EA0241426BE2
:1013E000128A41EA0251426B127D41EA0261426B6C
:1013F000926911430268521C4FF0204343F82210B7
:10140000816AB1F5804F1AD1816B0968826B52688D
:1014100041EA0211826B926841EA0221826B128AD0
:1014200041EA0251826B127D41EA0261826B92694C
:101430001143026803EB8202C2F8041108E06FF066
:1014400070414FF02043026803EB8202C2F804119E
:10145000704730B5002100220023446844F008049E
:1014600085682C43C5682C4305692C4345692C438A
:10147000856944EA4524C56944EA4531046A24681B
:10148000056A6D6844EA0524056A2D8944EA054425
:10149000056A2D7B44EA0562446A2468456A6D68E2
:1014A00044EA0524456A2D8944EA0544456A2D7BB2
:1014B00044EA05630468102C05D14FF020442166EE
:1014C000A266E36607E0934C21604FF02044C4F825
:1014D0008820944C236030BD016841F010014268BF
:1014E0001143826841EA4221C26841EA42318B4A93
:1014F0001160016909680269526841EA02210269C2
:10150000128941EA02410269127B41EA0261844A7E
:101510001160416909684269526841EA02214269E1
:10152000128941EA02414269127B41EA02617E4A24
:101530001160816909688269526841EA0221826901
:10154000128941EA02418269127B41EA02614FF04D
:101550002042C2F8B01070470021016002214160B2
:1015600000218160C160016141618161C1614FF40D
:1015700080510162490041620021816201630F21B3
:10158000426B1160426B5160FF21426B91600F21F1
:10159000426BD160426B1161426B51610021426B21
:1015A00091610F21826B1160826B5160FF21826B10
:1015B00091600F21826BD160826B1161826B5161EE
:1015C0000021826B91617047102101600021416010
:1015D0008160C160016141618161C161FC21026A78
:1015E0001160026A5160026A9160026AD160426AC7
:1015F0001160426A5160426A9160426AD1607047EC
:101600000021016041608160C160FC2102691160BC
:1016100002695160026991600269D160426911609A
:1016200042695160426991604269D160826911608A
:1016300082695160826991608269D160704751B15D
:101640004FF0204252F8202042F001024FF0204398
:1016500043F8202009E04FF0204252F82020334B7D
:101660001A404FF0204343F82020704799B11028CA
:1016700008D14FF02042126E42F004024FF0204396
:101680001A661DE0234A126842F004024FF020431C
:10169000C3F8802014E0102809D14FF02042126EC8
:1016A000224BDB1E1A404FF020431A6608E0194A0D
:1016B00012681F4B02EA03024FF02043C3F8802058
:1016C000704740B11549096841F004014FF02042CC
:1016D000C2F8A01008E011490968154A01EA0201A0
:1016E0004FF02042C2F8A010704719B3102808D15B
:1016F0004FF02042126E42F040024FF020431A6633
:101700002CE0044A126842F040024FF02043C3F834
:10171000802023E0800000A0880000A0A00000A09E
:10172000A80000A08C0000A0AC0000A0FEFF0F00ED
:10173000FBFF0F00102808D14FF02042126E684BBB
:101740001A404FF020431A6608E0664A1268644B5C
:1017500002EA03024FF02043C3F88020704701469D
:101760000020102903D14FF02042506F01E05E4A63
:101770001068704710B5F2B1102807D14FF0204320
:101780005B6E0B434FF02044636632E0B0F5807F20
:1017900008D1564B1B6843EA01034FF02044C4F8BC
:1017A000843026E0524B1B6843EA01034FF020448B
:1017B000C4F8A4301DE0102807D14FF020435B6E21
:1017C0008B434FF02044636613E0B0F5807F08D16F
:1017D000464B1B6823EA01034FF02044C4F88430D1
:1017E00007E0434B1B6823EA01034FF02044C4F891
:1017F000A43010BD10B5024600200023102A03D1EA
:101800004FF02044636E07E0B2F5807F02D1374C81
:10181000236801E0364C23680B4201D0012000E030
:10182000002010BD102807D14FF02042526E8A438D
:101830004FF020435A6613E0B0F5807F08D12B4A61
:10184000126822EA01024FF02043C3F8842007E027
:10185000274A126822EA01024FF02043C3F8A4206D
:10186000704770B502460020002300240025102A8E
:1018700003D14FF02046736E07E0B2F5807F02D1AE
:101880001A4E336801E01A4E336803EA010403EA92
:10189000D10514B10DB1012000E0002070BD102869
:1018A00008D14FF02042526E22EAD1024FF020437D
:1018B0005A6613E0B0F5807F08D10C4A126822EA1C
:1018C000D1024FF02043C3F8842007E0084A126891
:1018D00022EAD1024FF02043C3F8A4207047000051
:1018E000BFFF0F00800000A0940000A0840000A0B3
:1018F000A40000A010B50446C449601A8C422FD041
:1019000009DCC348201810D0B0F5806F16D0B0F5B0
:10191000006F4AD11BE0B0F5806F2AD0B0F5006FA0
:1019200030D0B0F5406F40D135E00121042000F007
:10193000EBFC0021042000F0E7FC37E00121082047
:1019400000F0E2FC0021082000F0DEFC2EE0012186
:10195000102000F0D9FC0021102000F0D5FC25E07B
:101960000121202000F0D0FC0021202000F0CCFC40
:101970001CE00121402000F0C7FC0021402000F0C5
:10198000C3FC13E00121802000F0BEFC0021802078
:1019900000F0BAFC0AE00121080200F0B5FC0021C9
:1019A0004FF4807000F0B0FC00E000BF00BF10BD3D
:1019B00010B50121084600F0A7FC0021012000F02D
:1019C000A3FC10BD2DE9F0410246002500260020B1
:1019D00000230024002791F803C00CF00F0591F8B4
:1019E00003C01CF0100F03D091F802C04CEA0505AB
:1019F00091F800C0BCF1000F30D0146800202AE03C
:101A00004FF0010C0CFA00F3B1F800C00CEA030629
:101A10009E421FD183004FF00F0C0CFA03F7BC431A
:101A200005FA03FC4CEA040491F803C0BCF1280F4A
:101A300005D14FF0010C0CFA00FCC2F814C091F86B
:101A400003C0BCF1480F05D14FF0010C0CFA00FCAB
:101A5000C2F810C0401C0828D2D31460B1F800C0EE
:101A6000BCF1FF0F34DD546800202EE000F1080CBB
:101A70004FF0010808FA0CF3B1F800C00CEA0306B5
:101A80009E4221D183004FF00F0C0CFA03F7BC43A8
:101A900005FA03FC4CEA040491F803C0BCF1280FDA
:101AA00005D100F1080C08FA0CF8C2F8148091F87E
:101AB00003C0BCF1480F07D100F1080C4FF001083A
:101AC00008FA0CF8C2F81080401C0828CED35460E5
:101AD000BDE8F0814FF6FF71018002218170042181
:101AE000C17070470246002093680B4201D001206C
:101AF00000E0002070470146886880B270470246C7
:101B00000020D3680B4201D0012000E00020704784
:101B10000146C86880B270470161704741617047F3
:101B20000AB1016100E041617047C16070474FF444
:101B300080320A4382618161826182698269704771
:101B400002460020334B18684FF68073184040EA75
:101B5000021008432F4B186070472F49C861704727
:101B6000F0B50A460023002400210025294E7168A3
:101B7000C0F3034583B200F44016B6F5401F08D108
:101B800021F07061234E766826F07066214F7E60EA
:101B900012E000F48016B6F5801F06D1032606FA7F
:101BA00005F4A14341F0706106E0460D360103FAE9
:101BB00006F6B14341F0706122B1460D360103FAD9
:101BC00006F63143134E7160F0BD30B500228B072D
:101BD0001C0F0F2303FA04F20E4B08338C1053F83A
:101BE000243093430B4C08348D1044F825302346A1
:101BF0008C1053F824308C07240F00FA04F423438C
:101C0000044C08348D1044F8253030BD00140140D8
:101C100000F8FEBF00000140000020420020411EED
:101C2000EE4A11606FF07042ED49C1F884204FF028
:101C3000FF314FF0E022C2F880126FF07042E949A4
:101C40000A6000BF04E00022E74941F82020401C60
:101C50000F28F8D3704700204FF02061E34A11604D
:101C60000021121D1160E249121D11600021121D98
:101C70001160121D116000BF05E00022DB49143124
:101C800041F82020401C0328F7D30021D74A2032F6
:101C90001160491E121D1160121D1160121D11608C
:101CA0007047D3490143D14A083211607047F0B5FB
:101CB00000210022002300250F24C678002E36D0F4
:101CC000CA4E0836366806F4E066C6F5E066310AA4
:101CD000C1F10405CC40467806FA05F18678264025
:101CE000314309010678B607F60EB140BE4E0778BB
:101CF000BF1056F827200678B607F70EFF2606FA1B
:101D000007F39A4319400A43B74E0778BF1046F8C5
:101D10002720067806F01F070126BE4007787F11AE
:101D20004FF0E02C0CEB8707C7F800610BE006785A
:101D300006F01F070126BE40A84F90F800C04FEAEA
:101D40006C1C47F82C60F0BD00210170417081705F
:101D5000C170704710B500F006FF10BD10B500F05F
:101D600000FF10BD10B500F003FF10BD10B500F06E
:101D700001FF10BD10B50446200100F000FF10BDAA
:101D800010B500F0FFFE10BD98480068C0F30930A0
:101D9000704710B501460020002201F01F04012306
:101DA00003FA04F28D4B80334C1153F82430134066
:101DB000934201D1012000E0002010BD8D49086050
:101DC000704700F01F0201219140864A121F431103
:101DD00042F82310704785480068C0F30900704737
:101DE00010B501460020002201F01F04012303FA70
:101DF00004F27C4B7C334C1153F824301340934253
:101E000001D1012000E0002010BD7848001F0068CB
:101E10007047794A0A400243744B1B1D1A60704791
:101E20007348001D71490831086070477048401CB4
:101E30006E4908310860704739B16C4A0C3212683B
:101E400002436A4B0C331A6006E0684A0C3212688F
:101E50008243664B0C331A60704710B5002200F0C5
:101E60001F04012303FA04F239B1604B20331B68CD
:101E700013435E4C2034236006E05C4B20331B6828
:101E800093435A4C2034236010BDF0B503460C46F2
:101E900015460020FF2200260021544F08373F68D6
:101EA00007F4E067C7F5E067390AC1F10400CA40EA
:101EB00004FA00F105EA02073943090103F0C00002
:101EC0008009C3F30122D700B9404FEAC20CFF27B3
:101ED00007FA0CF6454F143757F82070B743DFF870
:101EE0000CC10CF1140C4CF82070674657F82070A8
:101EF0000F434CF82070F0BD10B5024600200023BF
:101F00000021910A01F00F01012404FA01F1374C7C
:101F10002034246804EA01038B4201D1012000E04F
:101F2000002010BD002100F01F01304A126801237B
:101F30008B401A432D4B1A60704710B5002100F0FA
:101F40001F012A4A12684B1E01249C402243274B42
:101F50001A6010BD10B50246002000230021C2F314
:101F60008331012404FA01F1204C2034246804EA6E
:101F700001038B4201D1012000E0002010BD30B5EB
:101F80000146002000220023C1F38142C1F3015326
:101F90001AB9164C2834206811E0012A0CD1134CD0
:101FA00024342468DD0024FA05F0022B02D000F06E
:101FB0000F0004E0C0B202E00C4C2C34206830BDAD
:101FC000014600200022C1F380521AB9074B30337A
:101FD000186802E0054B34331868704780E100E070
:101FE00000E100E084E200E000E400E004ED00E055
:101FF0000000FA0500EF00E080FFFF1FDE480068E8
:1020000040F00100DC49086008464068DB490840B0
:10201000D949486008460068D9490840D64908604F
:102020000846006820F4802008600846406820F4D4
:10203000FE004860002088607047CF49096821F49D
:102040008031CD4A11601146096821F48021116068
:10205000B0F5803F03D0B0F5802F0ED106E0C64921
:10206000096841F48031C44A116007E0C249096837
:1020700041F4A021C04A116000E000BF00BF7047DA
:1020800010B501460022002300204A11012A02D186
:10209000B94C236806E0022A02D1B74C236A01E05A
:1020A000B54C636A01F01F02012494401C4201D028
:1020B000012000E0002010BD10B5002400BF312039
:1020C000FFF7DEFFAF490870AF480068401CAE491B
:1020D0000860AC48007828B908460068A0F580710F
:1020E000FF39ECD13120FFF7CBFF08B1012400E02C
:1020F0000024204610BD014600209F4A106820F0B1
:10210000F80040EAC10010607047A04908607047BD
:1021100002460020984B586820F47C1042EA0103E4
:102120001843954B586070479849086670470146B8
:102130000020914A506820F0030008435060704727
:102140008D48406800F00C007047014600208A4A24
:10215000506820F0F00008435060704701460020AE
:10216000854A506820F4E06008435060704701469B
:102170000020814A506820F4605040EAC10050605D
:10218000704729B17C4A527A02437B4B5A7204E071
:10219000794A527A8243784B5A7270477C49086078
:1021A000704701460020744A506820F440400843BC
:1021B000506070470021774A11706F4A82F82010F2
:1021C000012802D0042808D103E00121714A1170CE
:1021D00004E005216F4A117000E000BF00BF7047A6
:1021E0006D49086070476449096A0143624A116297
:1021F0007047694944390860704730B500210022B2
:10220000002400235C4D6D6805F00C0121B1042908
:1022100005D0082923D105E0604D056022E05F4D1F
:1022200005601FE0544D6D6805F47012022505EB42
:102230009242514D6D6805F480341CB9584D554398
:1022400005600BE04C4D6D6815F4003F03D0544D14
:102250005543056002E0514D5543056002E04F4D86
:10226000056000BF00BF444D6D6805F0F00109092D
:102270004C4D6B5C0568DD4045603F4D6D6805F475
:10228000E061090A474D6B5C4568DD4085603A4D69
:102290006D6805F46051C90A424D6B5C4568DD40CC
:1022A000C560354D6D6805F44041890B3E4D6B5C52
:1022B000C568B5FBF3F5056130BD29B12E4A5269F9
:1022C00002432D4B5A6104E02B4A526982432A4B48
:1022D0005A61704729B1284A92690243264B9A6194
:1022E00004E0254A92698243234B9A61704729B1E1
:1022F000214AD2690243204BDA6104E01E4AD269C6
:1023000082431D4BDA61704729B11B4AD2680243F0
:10231000194BDA6004E0184AD2688243164BDA603F
:10232000704729B1144A12690243134B1A6104E041
:10233000114A12698243104B1A617047164940399D
:10234000086070471149C86470470B49C8717047ED
:102350000948406A40F0807007494862704701466A
:102360000020054A92680A4201D0012000E00020C6
:102370007047014988727047001002400000FFF862
:10238000FFFFF6FE88250020842500200000424241
:10239000D8004242201002408004424200127A00DB
:1023A00000093D00FA6500080A66000810B50446F9
:1023B000CB4820180FD0B0F5806F16D0B0F5784F0D
:1023C0001DD101210803FFF79FFF00214FF480502A
:1023D000FFF79AFF14E001218803FFF7A2FF002115
:1023E0004FF48040FFF79DFF0AE00121C803FFF78B
:1023F00098FF00214FF40040FFF793FF00E000BF7B
:1024000000BF10BD10B50022028802F441520B88B3
:102410004C8823438C882343CC8823430C89234353
:102420004C8923438C892343CC8923431A4302805C
:10243000838B4FF2FF74234083830B8A038210BD8A
:102440002DE9F04786B005460C464FF000090227FB
:102450004FF000084FF0010A0026A88B4FF2400110
:102460000840A88302202884B5F81C9020890228FF
:1024700001D100BF31E0A08810B94FF0010A01E09E
:102480004FF0020A01A8FFF7B8FEE088B0F5007F20
:102490000AD1019800EB8000400021890902B0FBBD
:1024A000F1F0401D86B20BE04FEA4A102189484303
:1024B000019901EB81014900B1FBF0F0401D86B2AA
:1024C0000A20B6FBF0F606F00108A6EB0800C0F300
:1024D0004F074FF6FF7000EA0828022F01DBFF2F9D
:1024E00002DD02274FF0000847EA0800E1880843B0
:1024F0002884208840F4006061880843A18808434C
:102500006189084340EA0909A5F81C9006B0BDE8B6
:10251000F0870021018041808180C180018141815B
:102520008181C181072101827047002101804180A2
:102530008180C1800221018100214181704721B148
:10254000028842F04002028004E002884FF6BF7326
:102550001A400280704721B1828B42F480628283EC
:1025600004E0828B4FF6FF331A408283704730B508
:10257000002400230C110125A540ABB21AB18588B7
:102580001D43858002E085889D43858030BD1AB15A
:1025900083880B43838002E083888B43838070476A
:1025A00081817047014688897047A1F57E42FF3AD4
:1025B00004D0028842F48072028004E002884FF660
:1025C000FF631A400280704721B1828842F0040202
:1025D000828004E082884FF6FB731A408280704745
:1025E00002884FF2FF731A40028002880A43028079
:1025F0007047018841F480510180704721B1028801
:1026000042F40052028004E002884DF6FF731A4043
:102610000280704702460020012901D0108B00E0A3
:10262000908A70470146088A7047B1F5804F04D1FF
:10263000028842F48042028004E002884BF6FF7375
:102640001A40028070470246002013890B4201D0D5
:10265000012000E000207047202905D1028902886E
:1026600042F04002028007E0402901D0082901D150
:10267000028901E0CA4302817047F0B5024600209A
:1026800000240023002501F00F070126BE40B4B24C
:102690000B1101269E40B3B2968806EA03051689FF
:1026A000264202D00DB1012000E00020F0BD10B59F
:1026B0000022552905D10389038843F04003038094
:1026C0000CE0562901D0532901D1038906E001F01D
:1026D0000F040123A3409AB2D343038110BD00002D
:1026E00000C8FFBF042808D14FF0E021096941F07C
:1026F00004014FF0E022116107E04FF0E021096989
:1027000021F004014FF0E022116170474FF0E02109
:1027100048617047012808D14FF0E021096941F074
:1027200001014FF0E02211610EE0811C08D14FF051
:10273000E021096921F001014FF0E022116103E07D
:1027400000214FF0E0229161704740B14FF0E0214D
:10275000096941F002014FF0E022116107E04FF0FA
:10276000E021096921F002014FF0E0221161704778
:102770004FF0E0208069704710B501460022002329
:102780000020CB10022B03D14FF0E024226902E09D
:102790004FF0E024E26901248C40144201D0012072
:1027A00000E0002010BD000010B50446D749601AB3
:1027B0008C422BD006DCD648201813D0B0F5806FA1
:1027C00038D119E0B0F5806F2AD0B0F56C4F31D117
:1027D00001218803FFF798FD00214FF48040FFF7A7
:1027E00093FD28E001214804FFF79BFD00214FF4F1
:1027F0000030FFF796FD1EE001218804FFF791FDF0
:1028000000214FF48020FFF78CFD14E00121C80463
:10281000FFF787FD00214FF40020FFF782FD0AE05B
:1028200001210805FFF77DFD00214FF48010FFF71F
:1028300078FD00E000BF00BF10BD2DE9F04786B075
:1028400005460E460024A24600BF00BF00272F46C3
:102850002C8A4CF6FF700440F08804432C82AC892B
:102860004EF6F3100440B08831890843718908435B
:102870000443AC81AC8A4FF6FF400440B089044366
:10288000AC8201A8FFF7B9FCA248874202D1DDF86B
:1028900010A001E0DDF80CA00AEBCA0000EB0A1062
:1028A00031688900B0FBF1F86420B8FBF0F0040156
:1028B0002009642101FB1089322000EB0910B0FBD4
:1028C000F1F000F00F0004432C8106B0BDE8F08762
:1028D0004FF41651016000218180C18001810C21DB
:1028E000418100218181704710B502460020108A85
:1028F0004FF2FF0318400B884C8823438C882343F6
:10290000CC8823431843108210BD002101804180F0
:102910008180C180704721B1828942F40052828156
:1029200004E082894DF6FF731A4082817047F0B54A
:10293000034600240026002500201846C1F3421457
:1029400001F01F06012707FA06F5012C01D10C3012
:1029500004E0022C01D1103000E014301AB10768F5
:102960002F43076002E00768AF430760F0BD1AB16C
:10297000838A0B43838202E0838A8B43838270477E
:10298000028A4FF6F0731A400282028A0A430282D8
:10299000704782894FF2FF731A40828182890A430D
:1029A0008281704721B1828942F00202828104E073
:1029B00082894FF6FD731A4082817047028A4FF672
:1029C000DF731A400282028A0A430282704721B1F1
:1029D000028A42F48042028204E0028A4BF6FF73CC
:1029E0001A4002827047C1F3080282807047014694
:1029F0008888C0F308007047818941F00101818116
:102A00007047028BD2B20283028B42EA0122028318
:102A10007047028B02F47F420283028B0A430283D7
:102A2000704721B1828A42F02002828204E0828AC9
:102A30004FF6DF731A408282704721B1828A42F0DA
:102A40001002828204E0828A4FF6EF731A4082827B
:102A5000704721B1828A42F00802828204E0828AB1
:102A60004FF6F7731A4082827047828A4FF6FB73E3
:102A70001A408282828A0A438282704721B1828A06
:102A800042F00202828204E0828A4FF6FD731A400D
:102A9000828270470246002013880B4201D0012039
:102AA00000E000207047CA430280704770B50246BC
:102AB0000B460024002100250020C3F3421503F03B
:102AC0001F01012606FA01F1012D02D1968931403C
:102AD00006E0022D02D1168A314001E0968A31408B
:102AE0001C12012606FA04F41688344011B10CB108
:102AF000012000E0002070BD10B5002200230A1262
:102B000001249440A3B2DC43048010BD004C00407B
:102B100000BCFFBF0038014030BF704720BF704786
:102B200040BF7047BFF36F8F7047BFF34F8F704741
:102B3000BFF35F8F704701DF7047EFF3148070477A
:102B400080F31488BFF36F8F7047EFF309807047ED
:102B500080F309887047EFF30880704780F3088896
:102B6000704762B6704772B67047EFF310807047D7
:102B700071B6704761B67047EFF31380704780F30A
:102B800011887047EFF31280704740BA704700BA5F
:102B90007047000000B587B04FF4E130019000208D
:102BA000ADF80800ADF80A00ADF80C00ADF8100063
:102BB0000C20ADF80E000020ADF81200ADF81400A6
:102BC0004FF40070ADF816000020ADF8180001A910
:102BD000FE48FFF732FE01A9FD48FFF72EFE01A9CE
:102BE000FC48FFF72AFE01A9FB48FFF726FE01A9D2
:102BF000FA48FFF722FE01222821F448FFF797FE4A
:102C0000012240F22551F148FFF791FE0121EF48E2
:102C1000FFF781FE01222821ED48FFF788FE0122FF
:102C200040F22551EA48FFF782FE0121E848FFF70C
:102C300072FE01222821E748FFF779FE012240F2C7
:102C40002551E448FFF773FE0121E248FFF763FED8
:102C500001222821E048FFF76AFE012240F22551B7
:102C6000DD48FFF764FE0121DB48FFF754FE012237
:102C70002821DA48FFF75BFE012240F22551D748B0
:102C8000FFF755FE0121D548FFF745FE07B000BD0F
:102C900010B504462146CD48FFF7A5FE00BF8021B0
:102CA000CA48FFF7F7FE0028F9D000BF4021C74807
:102CB000FFF7F0FE0028F9D010BD10B504460BE078
:102CC00014F8011BC148FFF78EFE00BF4021BF482A
:102CD000FFF7E0FE0028F9D020780028F0D110BDE1
:102CE00010B50024B948FFF782FE044600BF20213A
:102CF000B648FFF7CFFE0028F9D0204610BD70B5CA
:102D000005460E460024B44204DAFFF7E9FF25F831
:102D10001400641C70BD10B504462146AC48FFF792
:102D200062FE00BF8021AA48FFF7B4FE0028F9D058
:102D300000BF4021A648FFF7ADFE0028F9D010BD26
:102D400010B504460BE014F8011BA148FFF74BFE39
:102D500000BF40219E48FFF79DFE0028F9D0207853
:102D60000028F0D110BD10B500249948FFF73FFEB0
:102D7000044600BF20219648FFF78CFE0028F9D0BA
:102D8000204610BD70B505460E460024B44204DA54
:102D9000FFF7E9FF25F81400641C70BD10B5044668
:102DA00021468C48FFF71FFE00BF80218948FFF7AE
:102DB00071FE0028F9D000BF40218648FFF76AFE67
:102DC0000028F9D010BD10B504460BE014F8011B23
:102DD0008048FFF708FE00BF40217E48FFF75AFEFB
:102DE0000028F9D020780028F0D110BD10B50024BB
:102DF0007848FFF7FCFD044600BF20217548FFF727
:102E000049FE0028F9D0204610BD70B505460E4693
:102E10000024B44204DAFFF7E9FF25F81400641C2B
:102E200070BD10B5044621466B48FFF7DCFD00BFBE
:102E300080216948FFF72EFE0028F9D000BF40210D
:102E40006548FFF727FE0028F9D010BD10B50446ED
:102E50000BE014F8011B6048FFF7C5FD00BF4021DF
:102E60005D48FFF717FE0028F9D020780028F0D140
:102E700010BD10B500245848FFF7B9FD044600BF47
:102E800020215548FFF706FE0028F9D0204610BD46
:102E900070B505460E460024B44204DAFFF7E9FF98
:102EA00025F81400641C70BD10B5044621464B483B
:102EB000FFF799FD00BF80214848FFF7EBFD002890
:102EC000F9D000BF40214548FFF7E4FD0028F9D0C4
:102ED00010BD10B504460BE014F8011B3F48FFF786
:102EE00082FD00BF40213D48FFF7D4FD0028F9D006
:102EF00020780028F0D110BD10B500243748FFF726
:102F000076FD044600BF20213448FFF7C3FD0028AA
:102F1000F9D0204610BD70B505460E460024B442D7
:102F200004DAFFF7E9FF25F81400641C70BD10B542
:102F300004462B48847001460878FFF7A9FE28490B
:102F40004878FFF7A5FE26498878FFF7A1FE002004
:102F500010BD2DE9F04106460F4614461D46701C73
:102F60002049887008468774002D71D10089201A85
:102F7000C8800846C0880A2801DA0A20C880194992
:102F80000878FFF785FE17494878FFF781FE154955
:102F90008878FFF77DFE134989880812FFF778FECD
:102FA00010498988C8B2FFF773FE0E49C988081214
:102FB000FFF76EFE0B49C988C8B2FFF769FE0949E1
:102FC00009890812FFF764FE06490DE0004400403D
:102FD0000038014000480040004C004000500040D4
:102FE0008A2500208E2500200989C8B2FFF750FEEF
:102FF000FA49887AFFF74CFEF849C87AFFF748FE8D
:10300000F64989890812FFF743FEF4498989C8B255
:10301000FFF73EFEF149887BFFF73AFEEF49098A48
:103020000812FFF735FEED49098AC8B2FFF730FEF6
:10303000EA49887CFFF72CFEE849C87CFFF728FEA8
:10304000E649C87CFFF724FEE449C87CFFF720FE70
:10305000012D5FD1A4F13200E049C8800846C08844
:103060000A2801DA0A20C880DC490878FFF710FE38
:10307000DA494878FFF70CFED8498878FFF708FE50
:10308000D64989880812FFF703FED4498988C8B257
:10309000FFF7FEFDD149C9880812FFF7F9FDCF49B6
:1030A000C988C8B2FFF7F4FD0020FFF7F1FD322018
:1030B000FFF7EEFDC949887AFFF7EAFDC749C87AEC
:1030C000FFF7E6FDC54989890812FFF7E1FDC3490D
:1030D0008989C8B2FFF7DCFDC049887BFFF7D8FDBE
:1030E000BE49098A0812FFF7D3FDBC49098AC8B254
:1030F000FFF7CEFDB949887CFFF7CAFDB749C87C08
:10310000FFF7C6FDB549C87CFFF7C2FDB349C87CCF
:10311000FFF7BEFD0020BDE8F08110B50446601C3D
:10312000AF4988700878FFF7B3FDAD494878FFF7DD
:10313000AFFDAB498878FFF7ABFDA9498988081234
:10314000FFF7A6FDA6498988C8B2FFF7A1FDA449EB
:103150008879FFF79DFDA2498879FFF799FDA0497D
:103160008879FFF795FD002010BD01469D488079C4
:10317000884204D100209C4A90711072704701204F
:10318000FCE701469748007A884204D10020954A1E
:103190009071107270470120FCE710B50446934807
:1031A000847001460878FFF7B6FD90494878FFF72C
:1031B000B2FD8E498878FFF7AEFD002010BD2DE9E5
:1031C000F04106460F4614461D46701C8349887020
:1031D00008468774002D62D10089201AC8800846ED
:1031E000C0880A2801DA0A20C8807C490878FFF7DD
:1031F00092FD7A494878FFF78EFD78498878FFF785
:103200008AFD764989880812FFF785FD7349898808
:10321000C8B2FFF780FD7149C9880812FFF77BFD2E
:103220006E49C988C8B2FFF776FD6C490989081252
:10323000FFF771FD69490989C8B2FFF76CFD67495D
:10324000887AFFF768FD6549C87AFFF764FD63492E
:1032500089890812FFF75FFD60498989C8B2FFF7C5
:103260005AFD5E49887BFFF756FD5C49098A0812C2
:10327000FFF751FD5949098AC8B2FFF74CFD57497C
:10328000887CFFF748FD5549C87CFFF744FD53494A
:10329000C87CFFF740FD5149C87CFFF73CFD012D7C
:1032A0005FD1A4F132004D49C8800846C0880A2881
:1032B00001DA0A20C88049490878FFF72CFD474900
:1032C0004878FFF728FD45498878FFF724FD4349F2
:1032D00089880812FFF71FFD40498988C8B2FFF7A7
:1032E0001AFD3E49C9880812FFF715FD3B49C988F8
:1032F000C8B2FFF710FD0020FFF70DFD3220FFF7E9
:103300000AFD3649887AFFF706FD3449C87AFFF787
:1033100002FD324989890812FFF7FDFC2F4989898E
:10332000C8B2FFF7F8FC2D49887BFFF7F4FC2B4966
:10333000098A0812FFF7EFFC2849098AC8B2FFF78B
:10334000EAFC2649887CFFF7E6FC2449C87CFFF7A5
:10335000E2FC2249C87CFFF7DEFC2049C87CFFF76D
:10336000DAFC0020BDE8F08110B50446601C1C4961
:1033700088700878FFF7CFFC19494878FFF7CBFC35
:1033800017498878FFF7C7FC154989880812FFF7A5
:10339000C2FC13498988C8B2FFF7BDFC104988797F
:1033A000FFF7B9FC0E498879FFF7B5FC0C4988791D
:1033B000FFF7B1FC002010BD10B504460B48847027
:1033C00001460878FFF7EAFC08494878FFF7E6FC71
:1033D00006498878FFF7E2FC002010BD8E2500200A
:1033E000A2250020CE250020DC2500208A250020F3
:1033F0002DE9F04106460F4614461D46701CFE4955
:10340000887008468774002D62D10089201AC88010
:103410000846C0880A2801DA0A20C880F6490878D8
:10342000FFF7BCFCF4494878FFF7B8FCF24988780C
:10343000FFF7B4FCF04989880812FFF7AFFCEE49AA
:103440008988C8B2FFF7AAFCEB49C9880812FFF7C0
:10345000A5FCE949C988C8B2FFF7A0FCE64909897B
:103460000812FFF79BFCE4490989C8B2FFF796FCF4
:10347000E149887AFFF792FCDF49C87AFFF78EFCB2
:10348000DD4989890812FFF789FCDB498989C8B2BF
:10349000FFF784FCD849887BFFF780FCD649098A6E
:1034A0000812FFF77BFCD449098AC8B2FFF776FC03
:1034B000D149887CFFF772FCCF49C87CFFF76EFCCE
:1034C000CD49C87CFFF76AFCCB49C87CFFF766FC96
:1034D000012D5FD1A4F13200C749C8800846C088D9
:1034E0000A2801DA0A20C880C3490878FFF756FC89
:1034F000C1494878FFF752FCBF498878FFF74EFC76
:10350000BD4989880812FFF749FCBB498988C8B2C0
:10351000FFF744FCB849C9880812FFF73FFCB649D9
:10352000C988C8B2FFF73AFC0020FFF737FC322009
:10353000FFF734FCB049887AFFF730FCAE49C87A0F
:10354000FFF72CFCAC4989890812FFF727FCAA4930
:103550008989C8B2FFF722FCA749887BFFF71EFCC8
:10356000A549098A0812FFF719FCA349098AC8B2BC
:10357000FFF714FCA049887CFFF710FC9E49C87C2B
:10358000FFF70CFC9C49C87CFFF708FC9A49C87CF3
:10359000FFF704FC0020BDE8F08110B50446601C74
:1035A000964988700878FFF7F9FB94494878FFF747
:1035B000F5FB92498878FFF7F1FB9049898808125A
:1035C000FFF7ECFB8D498988C8B2FFF7E7FB8B4911
:1035D0008879FFF7E3FB89498879FFF7DFFB8749A3
:1035E0008879FFF7DBFB002010BD10B50446844846
:1035F000847001460878FFF714FC81494878FFF78A
:1036000010FC7F498878FFF70CFC002010BD2DE9E5
:10361000F04106460F4614461D46701C76498870D8
:1036200008468774002D62D10089201AC880084698
:10363000C0880A2801DA0A20C8806F490878FFF795
:10364000F0FB6D494878FFF7ECFB6B498878FFF792
:10365000E8FB694989880812FFF7E3FB6649898816
:10366000C8B2FFF7DEFB6449C9880812FFF7D9FB2F
:103670006149C988C8B2FFF7D4FB5F4909890812BC
:10368000FFF7CFFB5C490989C8B2FFF7CAFB5A496B
:10369000887AFFF7C6FB5849C87AFFF7C2FB56493C
:1036A00089890812FFF7BDFB53498989C8B2FFF722
:1036B000B8FB5149887BFFF7B4FB4F49098A0812D0
:1036C000FFF7AFFB4C49098AC8B2FFF7AAFB4A498A
:1036D000887CFFF7A6FB4849C87CFFF7A2FB464958
:1036E000C87CFFF79EFB4449C87CFFF79AFB012D7D
:1036F0005FD1A4F132004049C8800846C0880A283A
:1037000001DA0A20C8803C490878FFF78AFB3A4969
:103710004878FFF786FB38498878FFF782FB3649FF
:1037200089880812FFF77DFB33498988C8B2FFF703
:1037300078FB3149C9880812FFF773FB2E49C98805
:10374000C8B2FFF76EFB0020FFF76BFB3220FFF7DC
:1037500068FB2949887AFFF764FB2749C87AFFF795
:1037600060FB254989890812FFF75BFB224989899B
:10377000C8B2FFF756FB2049887BFFF752FB1E4972
:10378000098A0812FFF74DFB1B49098AC8B2FFF7E7
:1037900048FB1949887CFFF744FB1749C87CFFF7B1
:1037A00040FB1549C87CFFF73CFB1349C87CFFF779
:1037B00038FB0020BDE8F08110B50446601C0F49BD
:1037C00088700878FFF72DFB0C494878FFF729FB34
:1037D0000A498878FFF725FB084989880812FFF70E
:1037E00020FB06498988C8B2FFF71BFB034988798B
:1037F000FFF717FB014905E08E250020A2250020D8
:103800008A2500208879FFF70CFB8A498879FFF721
:1038100008FB002010BD10B504468748847001469F
:103820000878FFF741FB84494878FFF73DFB824960
:103830008878FFF739FB002010BD2DE9F0410646DE
:103840000F4614461D46701C7C49887008468774D4
:10385000002D62D10089201AC8800846C0880A2835
:1038600001DA0A20C88075490878FFF71DFB734903
:103870004878FFF719FB71498878FFF715FB6F4906
:1038800089880812FFF710FB6C498988C8B2FFF7D6
:103890000BFB6A49C9880812FFF706FB6749C9880C
:1038A000C8B2FFF701FB654909890812FFF7FCFA66
:1038B00062490989C8B2FFF7F7FA6049887AFFF7C9
:1038C000F3FA5E49C87AFFF7EFFA5C498989081272
:1038D000FFF7EAFA59498989C8B2FFF7E5FA57496B
:1038E000887BFFF7E1FA5549098A0812FFF7DCFAED
:1038F0005249098AC8B2FFF7D7FA5049887CFFF7C6
:10390000D3FA4E49C87CFFF7CFFA4C49C87CFFF781
:10391000CBFA4A49C87CFFF7C7FA012D5FD1A4F161
:1039200032004649C8800846C0880A2801DA0A20C1
:10393000C88042490878FFF7B7FA40494878FFF74E
:10394000B3FA3E498878FFF7AFFA3C4989880812F4
:10395000FFF7AAFA39498988C8B2FFF7A5FA3749AB
:10396000C9880812FFF7A0FA3449C988C8B2FFF71E
:103970009BFA0020FFF798FA3220FFF795FA2F49BB
:10398000887AFFF791FA2D49C87AFFF78DFA2B490B
:1039900089890812FFF788FA28498989C8B2FFF790
:1039A00083FA2649887BFFF77FFA2449098A08129F
:1039B000FFF77AFA2149098AC8B2FFF775FA1F4959
:1039C000887CFFF771FA1D49C87CFFF76DFA1B4927
:1039D000C87CFFF769FA1949C87CFFF765FA00202F
:1039E000BDE8F08110B50446601C12498870087863
:1039F000FFF75AFA0F494878FFF756FA0D498878C9
:103A0000FFF752FA0B4989880812FFF74DFA094966
:103A10008988C8B2FFF748FA06498879FFF744FA5F
:103A200004498879FFF740FA02498879FFF73CFAA0
:103A3000002010BDA22500208A2500208E25002010
:103A400010B50446FC4804600120FEF763FE00BF89
:103A5000F94800680028FBD1801EFEF75BFE0020BD
:103A6000FEF758FE10BD10B50420FEF73BFEF348EC
:103A7000FEF74CFE0120FEF768FE10BD08B50121DF
:103A80004FF4EA10FEF76CF80420ADF8000018209F
:103A90008DF8030001208DF802006946E848FDF723
:103AA00091FF0820ADF8000004208DF8030069465E
:103AB000E348FDF787FF4FF40070ADF800001820D1
:103AC0008DF8030001208DF802006946DC48FDF7FF
:103AD00079FF4FF48060ADF8000004208DF80300FA
:103AE0006946D748FDF76EFF4FF48060ADF80000DF
:103AF00018208DF8030001208DF802006946D14896
:103B0000FDF760FF4FF40060ADF8000004208DF871
:103B100003006946CB48FDF755FF4FF48060ADF8D0
:103B2000000018208DF8030001208DF8020069467E
:103B3000C548FDF747FF4FF40060ADF800000420D2
:103B40008DF803006946C048FDF73CFF4FF48050F4
:103B5000ADF8000018208DF8030001208DF8020058
:103B60006946B948FDF72EFF0420ADF800008DF836
:103B700003006946B548FDF725FF4FF48070ADF8A6
:103B8000000048208DF8030003208DF802006946EC
:103B9000AC48FDF717FF4FF40070ADF80000182097
:103BA0008DF8030003208DF802006946A548FDF753
:103BB00009FF4FF48060ADF8000010208DF803007D
:103BC00003208DF802006946A148FDF7FBFE0220A4
:103BD000ADF8000010208DF8030003208DF80200DE
:103BE00069469B48FDF7EEFE0420ADF8000010206A
:103BF0008DF8030003208DF8020069469448FDF714
:103C0000E1FE0820ADF8000004208DF803006946AD
:103C10008F48FDF7D7FE1020ADF8000004208DF886
:103C2000030069468A48FDF7CDFE2020ADF800006C
:103C300010208DF8030003208DF8020069468448A7
:103C4000FDF7C0FE0220ADF8000010208DF8030043
:103C500003208DF8020069467948FDF7B3FE4FF462
:103C60008070ADF8000004208DF8030069467448A8
:103C7000FDF7A8FE4FF40050ADF8000004208DF8C9
:103C8000030069467048FDF79DFE4FF48050ADF883
:103C9000000010208DF8030003208DF80200694613
:103CA0006B48FDF78FFE4FF40050ADF80000042084
:103CB0008DF8030069466648FDF784FE4FF48040A6
:103CC000ADF8000004208DF8030069466048FDF758
:103CD00079FE4FF40040ADF8000010208DF803008D
:103CE00003208DF8020069465948FDF76BFE08BDB8
:103CF00000B585B000214FF00060FEF78AF826205D
:103D00008DF8100000208DF811008DF812000120B0
:103D10008DF8130004A8FDF7CAFF25208DF80C00CC
:103D200001208DF80D0000208DF80E0001208DF887
:103D30000F0003A8FDF7BBFF27208DF80800022025
:103D40008DF8090000208DF80A0001208DF80B0085
:103D500002A8FDF7ACFF34208DF8040003208DF895
:103D6000050000208DF8060001208DF8070001A84D
:103D7000FDF79DFF35208DF8000004208DF801002F
:103D800000208DF8020001208DF803006846FDF741
:103D90008EFF05B000BD10B5FEF730F94FF480304E
:103DA000FEF74BF9FEF788F92A49087008460078B3
:103DB000012826D11020FDF70DF80220FCF7F4FFB2
:103DC0000020FEF7C2F90020FEF7D1F94FF4806021
:103DD000FEF7C4F94FF4E0114FF48030FEF798F984
:103DE0000120FEF7A1F900BF3920FEF749F90028AC
:103DF000FAD00220FEF79BF900BFFEF7A1F90828D0
:103E0000FBD1012140F2DD10FEF764FA01214804E4
:103E1000FEF76DFA01218803FEF769FA0121880493
:103E2000FEF765FA0121C804FEF761FA01210805D1
:103E3000FEF75DFA10BD0000AC25002080FC0A00F2
:103E400000080140000C0140001001400014014036
:103E5000001C0140B82500209EB000201C901D9041
:103E600019901A901B9014229E4914A800F06CFF20
:103E700028210AA800F081FF2821684600F07DFF74
:103E800000240026002700BF01254FF0010800BFD5
:103E900000BF00BFFFF77FFFFFF72AFFFFF7EEFD30
:103EA000FFF7E1FDFEF776FE00F005FC02218E48EB
:103EB000FDF732FEFCF7ABF94FF6FF70FCF732FB73
:103EC0001F20FCF7AEFA89A10020FCF70EFB8CA1A5
:103ED0001820FCF70AFB0A20FFF7B2FD0220FFF7CB
:103EE00026F84FF6FF70FCF71DFBC7E000F097FEC9
:103EF00089A10020FCF7F9FA8D48807A0128F4D1D5
:103F00008CA14820FCF7F1FA00208D4988728D4978
:103F10008872874988728C4988728C4988724FF6FA
:103F2000FF70FCF7FFFA8AA10020FCF7DEFA0A20F6
:103F3000FFF786FD0125A84689A10020FCF7D5FAE8
:103F40008DA13020FCF7D1FA91A14820FCF7CDFAE1
:103F50000BE04FF480719448FDF7C4FD80464FF4A8
:103F600000519248FDF7BEFD0546012D02D1B8F182
:103F7000010FEED04DB94FF6FF70FCF7D3FA8CA1CC
:103F80000020FCF7B2FA012608E04FF6FF70FCF7BC
:103F9000C9FA8DA10020FCF7A8FA01276DE000F016
:103FA00090FE002436E0052C0CDA204600F078FC68
:103FB0004DF824005DF8240000F0BFFC0AA941F888
:103FC00024000CE0611FC8B200F084FC4DF824000E
:103FD0005DF8240000F0B1FC0AA941F8240066B1A4
:103FE0005FB90AA951F8240000F0D5FC19A90855B9
:103FF0006E2014A921F814000AE00AA951F824003F
:1040000000F004FD14A921F81400062019A9085590
:10401000601CC4B20A2CC6DB07E0012214A919A84F
:1040200000F038FD0520FFF70BFD4548C07A012858
:104030000FD04448C07A01280BD03D48C07A0128EF
:1040400007D04148C07A012803D04048C07A0128EF
:10405000E3D164A14820FCF748FA00203849C8722F
:104060003849C8723249C8723749C8723749C8726C
:1040700000F002FE0A20FFF7E3FC90E736E75E4817
:10408000006820B15C480068401E5B4908607047CA
:10409000F0B504460B4625460121002007E001EB60
:1040A00081064FF6FF7707EA4601461CF0B2561E1E
:1040B0008642F4DC00200EE095FBF1F630361E540B
:1040C00095FBF1F601FB1656B5B20A2691FBF6F602
:1040D000B1B2461CF0B29042EEDB00269F187E7013
:1040E000F0BD000010660008000801402020496E65
:1040F000697469616C697A6520646F6E652000007F
:104100007C205369676E616C2041637175697269C7
:104110006E67207C0000000020536561726368694F
:104120006E67204465766963652E2E2E20000000A0
:10413000DC25002020746573742E2E2E20000000D4
:10414000C0250020CE250020EA250020F8250020EB
:1041500020446576696365206C696E6B6564200038
:1041600020506C656173652070757368206275748A
:10417000746F6E20000000004B65793A2050756C1A
:1041800073655769647468204D6F646500000000B2
:1041900054616D7065723A2043757272656E742059
:1041A0004D6F6465000000000020014000100140D8
:1041B000207C2D2D2D43757272656E74204D6F64B9
:1041C000652D2D2D7C200000207C2D2D50756C73CD
:1041D00065205769647468204D6F64652D2D7C20BF
:1041E0000000000053656E6420737563636573732C
:1041F00066756C6C79000000AC250020704700BF2C
:10420000FEE700BFFEE700BFFEE700BFFEE7704726
:104210007047704710B5FFF732FF10BD7047704709
:1042200070477047704770477047704770477047D6
:1042300070477047704770477047704770477047C6
:1042400070477047704770477047704770477047B6
:1042500070477047704770477047704770477047A6
:1042600070477047704710B540F225517F48FEF700
:1042700011FC012825D17D48FEF7B9FB7C498880D7
:1042800008468088BC2801D101208872784880883F
:10429000292802D101207649C87275488088AA2849
:1042A00002D101207249087371488088BB2802D16D
:1042B00001206F49487340F225516C48FEF71CFC01
:1042C00010BD00BFFCE710B540F225516948FEF76C
:1042D000E1FB012825D16748FEF789FB6649888004
:1042E00008468088BC2801D10120887262488088F5
:1042F000292802D101206049C8725F488088AA2815
:1043000002D101205C4908735B488088BB2802D138
:1043100001205949487340F225515648FEF7ECFBFD
:1043200010BD00BFFCE710B540F225515348FEF721
:10433000B1FB012825D15148FEF759FB504988802F
:1043400008468088BC2801D1012088724C488088AA
:10435000292802D101204A49C87249488088AA28E0
:1043600002D101204649087345488088BB2802D104
:1043700001204349487340F225514048FEF7BCFBF9
:1043800010BD00BFFCE7704770477047704770472B
:10439000704770477047704770477047704710B557
:1043A00040F225513748FEF775FB012825D13548E5
:1043B000FEF71DFB3449888008468088BC2801D15F
:1043C0000120887230488088292802D101202E4996
:1043D000C8722D488088AA2802D101202A49087372
:1043E00029488088BB2802D101202749487340F220
:1043F00025512448FEF780FB10BD00BFFCE710B537
:1044000040F225512148FEF745FB012825D11F48E0
:10441000FEF7EDFA1E49888008468088BC2801D145
:10442000012088721A488088292802D10120184961
:10443000C87217488088AA2802D10120144908733D
:1044400013488088BB2802D101201149487340F2EB
:1044500025510E48FEF750FB10BD00BFFCE770472A
:104460007047704770477047704700000038014040
:10447000C025002000440040CE2500200048004018
:10448000DC250020004C0040EA25002000500040C0
:10449000F825002000BF00EB4002910000E0491E1B
:1044A0000029FCD1704770B5044608250221F74861
:1044B000FDF734FB0120FFF7EDFF1EE014F0800F45
:1044C00004D00421F148FDF727FB03E00421EF4865
:1044D000FDF724FB0220FFF7DDFF0221EB48FDF78B
:1044E0001BFB0220FFF7D6FF0221E848FDF716FB71
:1044F0000220FFF7CFFF6006040E2800A5F101019E
:10450000CDB2DBD170BD70B5044608250221DF486D
:10451000FDF704FB0120FFF7BDFF20E014F0800F42
:1045200005D04FF48051D948FDF7F6FA04E04FF476
:104530008051D648FDF7F2FA0220FFF7ABFF0221C7
:10454000D248FDF7E9FA0220FFF7A4FF0221CF4885
:10455000FDF7E4FA0220FFF79DFF6006040E280035
:10456000A5F10101CDB2D9D170BD70B508250024E7
:104570000221C648FDF7D2FA0220FFF78BFF18E0B0
:104580006006040E0221C148FDF7C6FA0220FFF7BB
:1045900081FF0221BD48FDF7C1FA0220FFF77AFF33
:1045A0000821BA48FDF79EFAB94908700846007814
:1045B00004432800A5F10101CDB2E1D1204670BD30
:1045C00070B5082500240221B048FDF7A7FA0220A3
:1045D000FFF760FF19E06006040E0221AB48FDF70B
:1045E0009BFA0220FFF756FF0221A848FDF796FA32
:1045F0000220FFF74FFF4FF40051A448FDF772FA75
:10460000A44908700846007804432800A5F1010178
:10461000CDB2E0D1204670BD70B5044600BF102178
:104620009A48FDF75FFA9C49087008460078002810
:10463000F5D144F01000FFF736FF0020FFF733FFFD
:104640000A20FFF727FFFFF790FF0546284670BDB9
:1046500070B504460D4600BF10218C48FDF742FAA4
:104660008D490870084600780028F5D144F05000C4
:10467000FFF719FF0020FFF716FF2846FFF713FF8B
:1046800070BD70B504460D4600BF4FF480417F48B1
:10469000FDF728FA81490870084600780028F4D10F
:1046A00044F05000FFF72FFF0020FFF72CFF2846B3
:1046B000FFF729FF70BD10B520217448FDF72CFAD3
:1046C0004FF400417148FDF727FA6420FFF7E2FE3E
:1046D00020216E48FDF722FA4FF400416B48FDF7A8
:1046E0001DFAFE20FFF7DFFEFE20FFF70CFF0A2079
:1046F000FFF7D0FEF4210020FFF7AAFF08210120D8
:10470000FFF7A6FF00210220FFF7A2FFE021032010
:10471000FFF79EFF00210420FFF79AFFF4210020FD
:10472000FFF7AFFF08210120FFF7ABFF00210220B8
:10473000FFF7A7FFE0210320FFF7A3FF00210420DC
:10474000FFF79FFF00BF10215048FDF7CBF95249FA
:104750000870084600780028F5D100BF4FF480416A
:104760004A48FDF7BFF94D4908700846007800280F
:10477000F4D1F020FFF797FE00BF474800780028EB
:10478000FBD1F020FFF7BFFE00BF444800780028AF
:10479000FBD10220FFF77EFE20213C48FDF7BCF94B
:1047A0004FF400413948FDF7B7F910BD2DE9F0414C
:1047B0000546002420213548FDF7B0F92807050EED
:1047C00045F008010120FFF743FF00BF10212F48EB
:1047D000FDF788F930490870084600780028F5D1BF
:1047E0000120FFF760FE0A20FFF754FEFFF7BDFE31
:1047F0000646FFF7BAFE0746FFF7B7FE80462021C0
:104800002248FDF789F9344624023C43240244EA55
:1048100008042046BDE8F0812DE9F041054600245A
:104820004FF400411948FDF779F92807050E45F0C6
:1048300008010120FFF725FF00BF4FF48041134816
:10484000FDF750F915490870084600780028F4D1A2
:104850000120FFF758FE0A20FFF71CFEFFF7B0FE0D
:104860000646FFF7ADFE0746FFF7AAFE80464FF467
:1048700000410648FDF750F9344624023C43240227
:1048800044EA08042046BDE8F0810000001C014015
:10489000B9250020BA250020BB250020BC2500201A
:1048A0002DE9F041074600242C253846FFF77EFF0E
:1048B00004460024002605E03846FFF777FF04444D
:1048C000701CC6B2AE42F7DB681CB4FBF0F42046A5
:1048D000BDE8F0812DE9F041074600242C2538463B
:1048E000FFF79AFF04460024002605E03846FFF74C
:1048F00093FF0444701CC6B2AE42F7DB681CB4FBE5
:10490000F0F42046BDE8F08170B50546002406E0CD
:104910002046FFF7C5FF45F82400601CC4B2082CF0
:10492000F6DB002070BD000000BF00EB40029100EC
:1049300000E0491E0029FCD170472DE9FE4F824658
:104940004FF0000B002002900190BAF5FA6F03D9E6
:10495000AAF5FA60019001E000200190019800F0B2
:10496000D5FB009000F009FC8046E84AE84B00F0D7
:10497000ECFA06460022E74B00F059FB044600F033
:104980000FFC834659464FF0804000F001FA029038
:104990000298BDE8FE8F2DE9F14F84B0002003900E
:1049A0000290DD49049800F0F3F9009000F0E5FB77
:1049B00080460022D94B00F021FA06460022D84B4F
:1049C00000F0C3FA04460022D64B00F0B8FA824643
:1049D00000F0E6FB0190D449019800F007FC02D8F2
:1049E000FF2003900EE00021019800F0F5FB02D2B9
:1049F0000020039006E0019800F08DFB02900298E1
:104A0000C0B20390039805B0BDE8F08F2DE9F047E0
:104A100081460024C549484600F0BAF9824600F0B4
:104A2000ACFB07460022C24B00F0E8F9054600F057
:104A30008BFB84B2B4F5967F01DD4FF4967420466B
:104A4000BDE8F0872DE9F04105460E460024032716
:104A5000022709E036F81420295D00232046FEF7DE
:104A600078FA0120FEF7ECFFB248017A601C81421F
:104A700003D0781EC0B20700ECD10020AD49087207
:104A800088710520FEF7DCFF17B90120BDE8F08131
:104A90000020FBE77CB504460D4616460020019039
:104AA000032000900220009083E09DF80400205C29
:104AB00078B19DF8040035F810209DF80400215CC1
:104AC00033469DF80400FEF77AFB00209A49C8722D
:104AD00003E09DF80400FEF747FC9DF80400401C2D
:104AE000205C88B19DF80400401C35F810209DF82A
:104AF0000400401C215C33469DF80400FEF729FAAF
:104B000000208C49C87203E09DF80400FEF705FB05
:104B10009DF80400801C205C88B19DF80400801C76
:104B200035F810209DF80400801C215C33469DF868
:104B30000400FEF75DFC00208049C87203E09DF888
:104B40000400FEF72AFD9DF80400C01C205C88B11B
:104B50009DF80400C01C35F810209DF80400C01C0E
:104B6000215C33469DF80400FEF751FD0020744996
:104B7000C87203E09DF80400FEF71EFE9DF80400D5
:104B8000001D205C88B19DF80400001D35F8102040
:104B90009DF80400001D215C33469DF80400FEF7DB
:104BA0004CFE00206749C87203E09DF80400FEF740
:104BB00019FF6148017A9DF80400401C814223D00E
:104BC0005C48017A9DF80400401C81421CD05B487F
:104BD000017A9DF80400401C814215D05848017AA2
:104BE0009DF80400401C81420ED05648017A9DF881
:104BF0000400401C814207D09DF80000401E10F0C8
:104C0000FF0000907FF451AF42F21070FFF78CFE6E
:104C10009DF8000008B901207CBD0020FCE710B51C
:104C200001240320FEF783F90320FEF7C5FB0320D0
:104C3000FEF7DBFC0320FEF7EEFD05E00320FEF7A8
:104C400076F96420FEF7FCFE3A488079032803D009
:104C5000601EC0B20400F1D1002037498872354986
:104C600088723649887236498872364988720CB91A
:104C7000012010BD0020FCE710B503240120FEF741
:104C800056F90120FEF789FA0120FEF795FB012075
:104C9000FEF7ABFC0120FEF7BEFD4FF47A70FFF784
:104CA00043FE0020244908732249087323490873EE
:104CB00023490873234908730CB9012010BD002053
:104CC000FCE710B503240220FEF731F90220FEF7BD
:104CD00064FA0220FEF770FB0220FEF786FC022039
:104CE000FEF799FD4FF47A70FFF71EFE002012497F
:104CF0004873104948731149487311494873114961
:104D000048730CB9012010BD0020FCE7BA490C0221
:104D10002B870240F8F94C41000040400000E03F82
:104D2000000024400000144000007F430000F041D8
:104D300000002540CE250020C0250020DC250020D5
:104D4000EA250020F825002040EA01039B0703D054
:104D500009E008C9121F08C0042AFAD203E011F8BA
:104D6000013B00F8013B521EF9D27047D2B201E07C
:104D700000F8012B491EFBD270470022F6E710B560
:104D800013460A4604461946FFF7F0FF204610BDB9
:104D900080EA010210B502F00043400026D04A002C
:104DA00023D04FEA106101EB1261C0F35600C2F349
:104DB000560240F4000042F40002A0FB0220A1F1E0
:104DC0007F014FEA0040140401D000F1010050EAD5
:104DD000124001D44000491EC2B20C0604EBD010B0
:104DE000401C4008802A02D003E0002010BD20F0C3
:104DF0000100002900DA0020184310BD2DE9FE4F04
:104E0000804681EA0300C00F0C46009021F000416B
:104E100023F00045B8EB0200A94105D240462146E7
:104E200090461C460B46024623F00040104304D136
:104E30004046214603B0BDE8F08F270DC7F30A00B6
:104E4000C3F30A510290401A0190402866DAC3F376
:104E5000130040F4801B0098924620B10023D2EB4F
:104E6000030A63EB0B0B01985946C0F14002504610
:104E700000F0C6F906460D4650465946019A00F024
:104E8000DEF910EB08006141002487EA115284EA40
:104E9000E7731A433BD0009A3AB3019A012A4FEACA
:104EA000075210DC001B61EB02014FF0004202EAE6
:104EB0000752CDE90042001C41F5801132462B46D5
:104EC00000F012FAB6E7001B61EB0201001C41F58D
:104ED000801300185B412018A2F5001747EB03016F
:104EE00040EAD570B6196D4111E06D084FEA3606FB
:104EF00045EAC0754FEA0752001B61EB0201001C36
:104F000041F5801149084FEA3000001951413246FD
:104F10002B4603B0BDE8F04F00F0D9B9009801224C
:104F200040000023D0EB020263EBE07300982146BF
:104F30004FEAE074B8EB000061EB0401E9E783F0AD
:104F400000435BE781F0004158E72DE9FE4F81EA1D
:104F5000030404F0004421F0004100944FF0000BE2
:104F600023F0004350EA010402D052EA030404D1C2
:104F70000020014603B0BDE8F08FC3F30A54C1F32B
:104F80000A552C44A4F2F3340194A0FB0254C1F35B
:104F9000130141F48011C3F3130343F4801301FBA5
:104FA000024400FB034E840A970A44EA815447EA0C
:104FB0008357A4FB076802958D0A05FB07854FEA16
:104FC000932C04FB0C542705029D4FEA065847EA30
:104FD0001637B5EB08056EEB070C870E920E47EA05
:104FE000811742EA8312A7FB0201B6EB0B0164EBC7
:104FF00000042B0D43EA0C335E1844EB1C50DA46D8
:105000005146E7FB0201C5F313044FEA0B3343EAB1
:1050100014534FEA0432019C43EA0603A4F10C0442
:105020000294009CCDE900B400F05EF9A2E72DE9FE
:10503000F04D81EA030404F0004B21F000451446D2
:105040004FF0000A23F0004150EA050220D054EA54
:1050500001021DD0C5F30A570246C5F31303C1F37D
:105060001300C1F30A5640F4801543F48013A7EBF4
:105070000608101BD64608F2FD3873EB050002D374
:1050800008F1010801E092185B41B8F1000F03DA62
:1050900000200146BDE8F08D00204FF48011064647
:1050A00084460EE0171B73EB050705D3121B63EB59
:1050B000050306434CEA010C49084FEA30009218F8
:1050C0005B4150EA0107EDD152EA030012D082EAB7
:1050D000040083EA0501084303D100224FF0004396
:1050E00008E0101BAB4102D20122002302E06FF066
:1050F000010253101AEB06004CEB085110EB0A00AA
:1051000041EB0B01BDE8F04D00F0E1B89623002221
:10511000114600F0AFB800F0004220F00040C10D91
:10512000C0F3160040F400007F2901DA0020704728
:10513000962903DCC1F19601C84001E09639884008
:10514000002AF4D040427047C1F30A5210B5C1F3AF
:10515000130140F2FF3341F480119A4201DA00203A
:1051600010BD40F233439A42A2F2334203DC524272
:1051700000F055F810BD904010BD00F0004230F036
:1051800000400AD0C10D01F56071C0F3160042EA7B
:105190000151C20840071143704700200146704783
:1051A00001F0004330B421F0004150EA010206D082
:1051B0000A0DA2F56072C1F31301002A02DC30BCB3
:1051C00000207047440F44EAC104C100E01830BC1D
:1051D00000EBC25000F045B8002801DBC0F10040F0
:1051E000002901DBC1F1004181427047002801DB49
:1051F000C0F10040002901DBC1F100418842704745
:10520000202A04DB203A00FA02F100207047914086
:10521000C2F1200320FA03F3194390407047202A7B
:1052200004DB203A21FA02F00021704721FA02F350
:10523000D040C2F120029140084319467047202A0D
:1052400006DBCB17203A41FA02F043EAE07306E0AE
:1052500041FA02F3D040C2F12002914008431946BE
:1052600070470029A8BF7047401C490008BF20F0C4
:105270000100704710B4B0FA80FC00FA0CF050EA5C
:10528000010404BF10BC704749B1CCF1200421FADD
:1052900004F411FA0CF118BF012121430843A3EBD8
:1052A0000C01CB1D0106000A002BBEBF002010BC64
:1052B000704700EBC35010440029A4BF10BC7047D6
:1052C000401C490008BF20F0010010BC704710B519
:1052D000002B08DA401C41F1000192185B411A438F
:1052E00001D120F0010010BD2DE9F04D92469B4602
:1052F00011B1B1FA81F202E0B0FA80F220329046A8
:10530000FFF77EFF04460F4640EA0A0041EA0B0120
:1053100053465A46084303D120463946BDE8F08D2E
:10532000114653EA010015D0C8F140025046FFF77C
:1053300076FF05460E46504659464246FFF760FF47
:10534000084301D0012000E00020054346EAE07652
:105350002C4337430A984FEA4453A0EB08004FEA26
:10536000D4240A304FF0000244EA47544FEAD725CC
:1053700002D500200146D1E7010510196941DDE998
:10538000084500196941BDE8F04DA0E7064C074DFE
:1053900006E0E06840F0010394E807009847103405
:1053A000AC42F6D3FAF7C8FE24660008446600084B
:1053B00070B501EB020410F8015B15F0070301D191
:1053C00010F8013B2A1106D110F8012B03E010F868
:1053D000016B01F8016B5B1EF9D12B0705D400238B
:1053E000521E0FD401F8013BFAE710F8013B02F11D
:1053F0000202A1EB030303E013F8015B01F8015B78
:10540000521EF9D5A142D6D3002070BD02E008C8D3
:10541000121F08C1002AFAD170477047002001E02E
:1054200001C1121F002AFBD17047000000000000DC
:10543000000000000000000000000000000000006C
:10544000000000000000000000000000000000005C
:10545000000000000000000000000000800180014A
:105460008001800180018001800180018001800134
:1054700080018001800100000000800180010000A7
:105480000000000000000000000000000000CC0050
:10549000CC00CC00CC00CC00CC0000000000000010
:1054A00000000000000000000000000000000000FC
:1054B00000000000000000000000000000000000EC
:1054C000000000000000600C600C600C300630062C
:1054D000FE1FFE1F300638071803FE1FFE1F1803AD
:1054E00018038C018C018C01000000008000E00397
:1054F000F80F9C0E8C1C8C188C009800F801E007AB
:10550000800E801C8C188C189C18B80CF00FE003CF
:10551000800080000000000000000000000000008B
:105520000E181B0C110C11061106110311039B011F
:105530008E01C038C06C604460443044304418442C
:10554000186C0C380000000000000000E001F003BF
:105550003807180618063003F001F000F8009C31F7
:105560000E33061E061C061C063FFC73F0210000CD
:1055700000000000000000000000000000000C001F
:105580000C000C000C000C000C00000000000000DF
:10559000000000000000000000000000000000000B
:1055A00000000000000000000000000000020003F6
:1055B0008001C000C000600060003000300030009A
:1055C0003000300030003000300060006000C0006B
:1055D000C000800100030002000000002000600005
:1055E000C0008001800100030003000600060006E1
:1055F0000006000600060006000600030003800106
:105600008001C000600020000000000000000000D9
:10561000000000000000C000C000D806F807E0014C
:105620003003380700000000000000000000000008
:10563000000000000000000000000000000000006A
:1056400000000000000080018001800180018001D5
:10565000FC3FFC3F8001800180018001800100004F
:10566000000000000000000000000000000000003A
:10567000000000000000000000000000000000002A
:105680000000000000000000000000008001800118
:105690000001000180000000000000000000000088
:1056A00000000000000000000000000000000000FA
:1056B0000000E007E007000000000000000000001C
:1056C00000000000000000000000000000000000DA
:1056D00000000000000000000000000000000000CA
:1056E000000000000000000000000000C000C0003A
:1056F000000000000000000000000000000C000C92
:10570000000600060006000300030003800380017A
:1057100080018001C000C000C00060006000000087
:10572000000000000000000000000000E003F0079F
:10573000380E180C0C180C180C180C180C180C1827
:105740000C180C180C18180C380EF007E0030000A9
:1057500000000000000000000000000000018001C7
:10576000C001F00198018801800180018001800161
:1057700080018001800180018001800180010000A2
:10578000000000000000000000000000E003F80F2F
:10579000180C0C180C1800180018000C0006000358
:1057A0008001C000600030001800FC1FFC1F0000DA
:1057B000000000000000000000000000E001F80709
:1057C000180E0C0C0C0C000C0006C003C007000CDB
:1057D000001800180C180C18180CF807E00300004B
:1057E000000000000000000000000000000C000E9F
:1057F000000F000F800DC00C600C600C300C180CFA
:105800000C0CFC3FFC3F000C000C000C000C0000DA
:10581000000000000000000000000000F80FF80F7A
:10582000180018000C00EC03FC071C0E001C0018EC
:10583000001800180C181C0C180EF807E0030000E4
:10584000000000000000000000000000C007F00F92
:10585000381C181818000C00CC03EC0F3C0E1C1C54
:105860000C180C180C18181C380EF007E003000078
:10587000000000000000000000000000FC1FFC1FF2
:10588000000C00060006000380038001C001C00078
:10589000E000600060007000300030003000000068
:1058A000000000000000000000000000E003F0071E
:1058B000380E180C180C180C3806F007F007180CE6
:1058C0000C180C180C180C18380CF80FE00300001A
:1058D000000000000000000000000000E003F007EE
:1058E000380E1C0C0C180C180C181C1C381EF81B3D
:1058F000E0190018000C000C1C0EF807F001000065
:105900000000000000000000000000000000000097
:105910000000000000008001800100000000000085
:105920000000000000000000000080018001000075
:105930000000000000000000000000000000000067
:105940000000000000008001800100000000000055
:105950000000000000000000000080018001000144
:1059600000018000000000000000000000000000B6
:10597000000000000000000000000010001C800F6C
:10598000E003F8001800F800E003800F001C00108E
:105990000000000000000000000000000000000007
:1059A00000000000000000000000F81F00000000E0
:1059B0000000F81F000000000000000000000000D0
:1059C00000000000000000000000000000000000D7
:1059D0000000000000000000000008003800F00196
:1059E000C007001F0018001FC007F00138000800A2
:1059F000000000000000000000000000E003F80FBD
:105A0000180C0C180C180018000C0006000380017C
:105A1000C000C000C00000000000C000C0000000C6
:105A20000000000000000000000000000000E0078F
:105A300018180420C229224A11440944094409447F
:105A400009221113E20C024004201818E00700009C
:105A50000000000000000000000000008003800340
:105A6000C006C006C006600C600C30183018301834
:105A7000F83FF83F1C700C600C6006C006C00000C8
:105A8000000000000000000000000000FC03FC0F0C
:105A90000C0C0C180C180C180C0CFC07FC0F0C1838
:105AA0000C300C300C300C300C18FC1FFC070000C4
:105AB000000000000000000000000000C007F01F10
:105AC00038381C300C700660060006000600060020
:105AD0000600060006600C701C30F01FE007000096
